:100000000C944E000C946B000C946B000C946B00E1
:100010000C946B000C946B000C946B000C946B00B4
:100020000C946B000C946B000C946B000C946B00A4
:100030000C946B000C946B000C946B000C946B0094
:100040000C946B000C946B000C946B000C946B0084
:100050000C946B000C946B000C946B000C946B0074
:100060000C946B000C946B000C946B000C946B0064
:100070000C946B00EE07F207F707FA07FE07020879
:1000800007084408450842084508400845083E0856
:1000900045083C0845083A084508380811241FBEA1
:1000A000CFEFD4E0DEBFCDBF13E0A0E0B1E0E0EAE7
:1000B000F4E102C005900D92A438B107D9F723E00E
:1000C000A4E8B3E001C01D92AB39B207E1F70E948A
:1000D000C5080C944E0A0C940000E1E6F0E080E8BC
:1000E00080831082A89584B7877F84BFE0E6F0E024
:1000F00080818861808310820895CF93DF93D62F0B
:10010000FB0160E070E0A1E0B0E05E2F5D1B5417E2
:10011000B8F4C191BD010C2E02C0660F771F0A947E
:10012000E2F76F5F7F4F76956795680F791F02C082
:1001300076956795CA95E2F76F3F710509F028F744
:10014000F9016083852FDF91CF910895109280008F
:1001500084E08093810010928500109284000895BD
:1001600080918400909185000895AC018091840075
:10017000909185009C01241B350B283E3340B0F73D
:1001800008952091840030918500820F931F0C9474
:10019000B500CF93DF931F92CDB7DEB79E012F5FDF
:1001A0003F4F45E062E371E00E947D0091E0980FCF
:1001B000909300019981915097BD18BC95B59770A7
:1001C00039F025B5909100019770287F922B95BD4D
:1001D000298130E0E82FF0E0EE5CFE4FC90100809D
:1001E00002C0880F991F0A94E2F70F90DF91CF9118
:1001F000089585B3897F85BB95B58091000187708F
:10020000987F892B85BD089585B5887F85BD089524
:1002100085B382FB882780F90895009719F001972C
:1002200041F0089584B56295660F660F607C8F7308
:1002300005C084B563706295607F8F7C682B64BD58
:100240000895009741F0019759F484B58E7F84BDDD
:1002500084B5826002C084B58C7F84BD81E008953E
:1002600080E0089514BC15BC16BC18BC81E090E079
:100270000E94210181E008959C01215031093093B1
:10028000CD0081508093CC000895CF93DF93EC0193
:10029000888199810E943C018A819BEF980F94305C
:1002A00008F088E098E19093C9008550880F80930A
:1002B000CA0081E0DF91CF9108958091C800881F26
:1002C0008827881F08958091C80085FB882780F9BA
:1002D00008958091C80086FB882780F90895CF9300
:1002E000C82F0E9463018823E1F39091C8009064B5
:1002F0009093C800C093CE00CF9108958091C8001C
:1003000087FFFCCF8091CE000895CF93DF93EC015F
:100310008991882319F00E946F01FACFDF91CF9164
:1003200008958530A0F4673090F421E030E0062E87
:1003300001C0220F0A94EAF7E82FF0E0EB57FC4FD8
:10034000822F8095908189234111822B808308958B
:10035000853088F4673078F4E82FF0E0EB57FC4FF5
:1003600021E030E0062E01C0220F0A94EAF79081C6
:10037000922381E009F480E0089560918403E62FE0
:10038000F0E0EB57FC4F80810E940C0280918403C7
:100390008F5F853018F4809384030895109284034E
:1003A000089510928503109286031092870310928D
:1003B00088031092890308950E94EA010C94D101E8
:1003C000FC01FF2784A1892B84A385A1892B85A308
:1003D00081E00895CF93DF93C1E4D1E089919991B1
:1003E0000E94E00181E0CF34D807C1F783E090E4B8
:1003F0000E94E00180E090E80E94E00183E090E14B
:100400000E94E00183E090E80E94E00183E090E236
:10041000DF91CF910C94E001E0918A03F0E0EE0FC0
:10042000FF1FE95CFE4F20813181F901FF2795A173
:10043000932B95A3E1E4F1E020813181D901BB2721
:1004400080FF07C095962C919597932F90959223B6
:1004500004C095969C919597932B95969C93869521
:10046000329691E0EF34F90739F7E62FF0E0EE0F1E
:10047000FF1FE95CFE4F80819181FC01FF2725A1D0
:10048000892F8095822385A360938A030895623023
:10049000710511F160F46130710551F5FC01FF2720
:1004A00084A19095892384A385A189231EC06330EC
:1004B000710541F064307105D9F4FC01FF2784A176
:1004C000892B10C0FC01FF2784A1892B84A325A1BF
:1004D000892F8095822309C0FC01FF2784A1292F41
:1004E0002095822384A385A1892B85A381E008958B
:1004F00080E00895E82FF0E0EE0FFF1FE557FC4F76
:100500008081882321F0818191E0892701C080E0EA
:1005100081700895E82FF0E0EE0FFF1FE557FC4FC4
:100520008081811102C0818101C080E081700895C5
:10053000E82FF0E0EE0FFF1FE557FC4F8081089594
:10054000E82FF0E0EE0FFF1FE557FC4F908181E0B0
:10055000892708954F925F927F928F929F92AF92D8
:10056000BF92CF92DF92EF92FF920F931F93CF93A0
:10057000DF9300D0CDB7DEB75BE8452E53E0552EB4
:100580006CE8E62E63E0F62E7FE4A72E71E0B72E2E
:10059000E6E07E2EF2018081F7018083F501019172
:1005A00011915F016801DD24F60184A1812E992457
:1005B00025A130E02821392141E0232B09F440E036
:1005C00090E088219921892B29F0442341F024E0EF
:1005D00030E00AC0442331F022E030E005C023E0DF
:1005E00030E002C021E030E064E070E0C80129831F
:1005F0003A830E94470262E070E0C8010E9447020D
:10060000872D8A95F1F7F60183A190E08821992141
:1006100041E029813A81892B09F040E0F2014083D1
:10062000B901C8010E944702F2E04F0E511C82E05E
:10063000E80EF11CE5E94E16E3E05E0609F0AACFEC
:100640000F900F90DF91CF911F910F91FF90EF903E
:10065000DF90CF90BF90AF909F908F907F905F90F2
:100660004F9008950895009789F0FC012381621B43
:1006700067FD09C0772767FD7095248130E081E030
:10068000621773070CF080E08170089580E0089590
:10069000CF93DF93FC01822F309789F19181491725
:1006A00070F52281821758F52381621B67FD27C0F0
:1006B000A62FBB27A7FDB095C481D0E0AC17BD071E
:1006C000F4F4692F0E94CA09480F658170E0CD01DA
:1006D0000E94D309DC011696842F8695869586950F
:1006E000AE0FBF1FA80FB11D2C9130E0477002C0A4
:1006F000359527954A95E2F7822F817001C080E0F9
:10070000DF91CF910895CF93DF93EC010E94A60073
:100710009E0140E050E062E17AE780E090E00E94D4
:10072000F8093093980320939703DF91CF910895B0
:1007300080919503909196030E94B5008091950356
:10074000909196032091970330919803820F931F05
:100750009093960380939503089541E0611101C041
:1007600040E0692F0C949101692F0C94A80141E09D
:10077000611101C040E0692F0C9491016F927F924A
:100780008F929F92AF92BF92CF92DF92EF92FF92A1
:100790000F931F93CF93DF931F92CDB7DEB7862EB3
:1007A000B42E6C01862F992787FD90958C1991099D
:1007B000C7FC9395072F112707FD10950D191109F7
:1007C000D7FC139597FD03C0AA24A39402C0AA24C2
:1007D000AA9417FD03C09924939402C099249A9473
:1007E0003C0197FF03C071946194710817FF03C027
:1007F0001195019511096016710694F07301F59435
:10080000E794C81409F16B2DC6010E94B703E01AE2
:10081000F10AF7FE03C0E60CF71CD90CCA0CF1CFA5
:100820007801F594E794D71679F06B2DC60179839A
:100830000E94B703E618F7087981F7FE03C0E00EBF
:10084000F11ECA0CD90CEFCF6B2DC6010F90DF91B2
:10085000CF911F910F91FF90EF90DF90CF90BF90BD
:10086000AF909F908F907F906F900C94B703FF9202
:100870000F931F93CF93DF93182FF92E062FC72FB7
:10088000D42F792F0E94BE034D2F612F7C2F812FF3
:100890009F2D0E94BE034D2F602F7C2F802F9F2DF8
:1008A0000E94BE034D2F602F7C2F812F9C2F0E9412
:1008B000BE03DF91CF911F910F91FF9008950E9489
:1008C000D1011092120110920D010895DF92EF9262
:1008D000FF920F931F93CF93DF93E82E8B01F62E99
:1008E000D12E2091030130910401D0E02130310557
:1008F00099F5D12EDD1AE0910901F0910A0181816B
:10090000C0E0D817B8F4E0910901F0910A018281A2
:10091000C81770F42C2F4D2F6E2DCF010E94480365
:10092000682F8C2F800F9D2D0E94B703CF5FEBCFD8
:10093000DF5FDFCFE0910901F0910A018281C817E2
:1009400040F460E08C2F800F9D2D0E94B703CF5F95
:10095000F1CFDA9430C0DF5FFD2EF00EE091090197
:10096000F0910A018181C0E0D817A8F4E091090153
:10097000F0910A018281C81770F72C2F4D2F6E2D30
:10098000CF010E944803682F8F2D9C2F910F0E944A
:10099000B703CF5FEBCFE0910901F0910A018281AB
:1009A000C81740F460E08F2D9C2F910F0E94B70371
:1009B000CF5FF1CFF3948F2D9D2DDF91CF911F91BC
:1009C0000F91FF90EF90DF9008951F93CF93DF93E7
:1009D000182FEC019C2F911B8991882349F00E94CC
:1009E0006604BC019C2F911B653014F477FFF2CF95
:1009F000892FDF91CF911F9108950F931F93CF936C
:100A0000DF93EC019B0110920D0140930E011092B7
:100A100011010091090110910A010115110509F454
:100A200048C0F8018181609107017091080190E050
:100A30000E94D309BC0180910B0190910C010E948E
:100A4000E409CB016AE070E00E94D30990931001A1
:100A500080930F01309306012093050140E250E09E
:100A6000BE0182E191E00E943F0A809101019091D4
:100A700002010197F1F4FE0101900020E9F7CF0196
:100A80000197F801618170E06F5F7F4F8C1B0E94BE
:100A9000CA098150209103013091040121303105B0
:100AA00011F497E001C095E0981718F48EEF809349
:100AB0001101DF91CF911F910F91089520910301B2
:100AC000309104012130310511F476E001C070E06D
:100AD0004FEF60E00E94FD04089590E090930801BC
:100AE0008093070108959093020180930101089576
:100AF0009093040180930301089590930A018093D9
:100B000009010895CF938091990390919A030196DA
:100B100090939A038093990320910F0130911001D3
:100B20008217930708F468C010929A0310929903F1
:100B3000E0910D01F0E0EF5FFE4F818981110AC065
:100B400080910E01823008F457C0815080930E01CD
:100B500010920D01C0910D018C2F90E0FC01EF5F10
:100B6000FE4F2189222309F447C0209101013091D1
:100B70000201409111012115310521F0213031058B
:100B800089F022C0411120C06091050170910601D9
:100B90008E5E9E4F0E94E5049FEF9C0F980F9093EE
:100BA0000D0112C0609105017091060120910301B1
:100BB000309104012130310511F4740F01C0641B20
:100BC0008E5E9E4F0E94E504209111012F5F2093BD
:100BD0001101332727FD3095E0910901F0910A01B9
:100BE000818190E0821793073CF41092110180916B
:100BF0000D018F5F80930D01CF910C94BD019093F7
:100C00000C0180930B010E94DC0184E190E0909341
:100C10000801809307010C945F04CF93DF93CDB755
:100C2000DEB7A0970FB6F894DEBF0FBECDBF282F5A
:100C3000392F80E1E9E5F1E0DE01519601900D9256
:100C40008A95E1F7C901880F991F41E050E04C0FE8
:100C50005D1F840F951FFC014089640F5189750F3A
:100C6000653070F020E1E9E6F1E0DE0111960190D7
:100C70000D922A95E1F7440F641BFC01208131811C
:100C80007730B8F080E1E9E7F1E0DE0111960190FC
:100C90000D928A95E1F7F901EE0FFF1F41E050E058
:100CA0004C0F5D1FE40FF51F8189880F781B208191
:100CB0003181C901A0960FB6F894DEBF0FBECDBF3B
:100CC000DF91CF910895CF93DF93CDB7DEB76097D3
:100CD0000FB6F894DEBF0FBECDBF20E1E9E8F1E02A
:100CE000DE01119601900D922A95E1F7FC01EE0FBD
:100CF000FF1F21E030E02C0F3D1FE20FF31F80812A
:100D0000918160960FB6F894DEBF0FBECDBFDF9124
:100D1000CF910895762F952F863008F084E07830B3
:100D200008F076E0682F842F08950C945D010C94F0
:100D30007E010C9463010C9469010C946F010E9474
:100D40006F010E9469018823E1F38CE291E0019731
:100D5000F1F70E945D0181110C94970608950C949F
:100D60008501CF93DF9300D01F92CDB7DEB780ED22
:100D700090E09A83898388E08B83509A589A0E94E6
:100D800032018FE690E00E94C90081E090E00E946D
:100D9000210161E070E081E090E00E940D010E947D
:100DA000F900CE0101960E9445010F900F900F901F
:100DB000DF91CF910895FC0160834183228384E019
:100DC000838364838583468387832087CF01089547
:100DD0000F931F93CF93DF93CDB7DEB729970FB64D
:100DE000F894DEBF0FBECDBF09832B830E945F0442
:100DF0007B8141E064E084E099810E94BE032996F2
:100E00000FB6F894DEBF0FBECDBFDF91CF911F911B
:100E10000F9108950F931F93FC016115710549F41B
:100E200020812F5F208391819F5F918382818F5FDB
:100E30000BC06130710581F42081215020839181A4
:100E40009150918382818150828334E03383248363
:100E50003583968337838087008111812281338196
:100E6000448155816681778180850E94E8061F91C3
:100E70000F910895811105C0662311F0429A0895DB
:100E8000429808953A9A429A0895CF92DF92EF924B
:100E9000FF920F931F93CF93DF93CDB7DEB72997C0
:100EA0000FB6F894DEBF0FBECDBF7C1521F07D15C7
:100EB00021F087E003C085E001C086E090E029963C
:100EC0000FB6F894DEBF0FBECDBFDF91CF911F915B
:100ED0000F91FF90EF90DF90CF900895CF93DF9325
:100EE000CDB7DEB72A970FB6F894DEBF0FBECDBFE1
:100EF0006E837F83888799874A8785E0FE013696CF
:100F0000DE01119601900D928A95E1F729813A81CF
:100F10004B815C816D8170E080E090E02A960FB695
:100F2000F894DEBF0FBECDBFDF91CF910895CF9370
:100F3000DF93CDB7DEB72A970FB6F894DEBF0FBEAA
:100F4000CDBF84EF91E00E94FF0589E991E00E9406
:100F50007D058FE00E946D0581E090E00E947305A1
:100F60008AE0EAE7F3E0DE01119601900D928A959E
:100F7000E1F7CE0101960E945E0584EF91E00E94A8
:100F800083030E9498030E948205FBCFCF93DF93D7
:100F900000D000D000D0CDB7DEB7813011F4898306
:100FA00001C019826530710519F481E08D8305C097
:100FB0006630710521F41D8281E08E8306C06730A2
:100FC000710519F481E08D831E8250E04730510590
:100FD00010F5FA01E65CFF4F0C94170A81E08A8352
:100FE0001B8203C01A8281E08B831C8214C081E0C3
:100FF0008A83FACF1A821B8281E007C081E08A834C
:101000001B8203C01A8281E08B838C8304C091E031
:101010009A839B839C83FE013196CE010796319182
:10102000230FE817F907D9F7822F26960FB6F89401
:10103000DEBF0FBECDBFDF91CF910C949F068032F3
:1010400041F0803321F0803129F493E003C091E036
:1010500001C092E0892F90E00895482F50E0FA01F6
:101060003297ED30F10588F4EF5BFF4F0C94170ACF
:1010700090E00BC091E009C092E007C093E005C08A
:1010800094E003C095E001C096E0892F0895EF92A7
:10109000FF920F931F93CF93DF93CDB7DEB7609787
:1010A0000FB6F894DEBF0FBECDBFFE01319620E033
:1010B00030E0DF01682F880F770BAB01022E02C0F2
:1010C000559547950A94E2F7417041932F5F3F4F42
:1010D0002630310591F7098125E030E0FD01E20F6E
:1010E000F31F80818130C9F42330310599F044F435
:1010F0002130310589F02230310579F41C5F0DC0B3
:101100002430310529F02530310539F4105E05C051
:10111000905F03C0985F01C01E5F21503109F0F657
:10112000892F0E941F087C01812F0E942D08A70192
:1011300060E00E948A06013011F040E001C041E009
:101140000E946E072C873D874E875F87688B85E0FE
:10115000FE013C96DE01179601900D928A95E1F70B
:101160002F81388549855A856B8570E080E090E055
:1011700060960FB6F894DEBF0FBECDBFDF91CF9162
:101180001F910F91FF90EF900895CF93DF93CDB70C
:10119000DEB72E970FB6F894DEBF0FBECDBF0E940C
:1011A0006D0084EF91E00E94FF050E9432038CE203
:1011B00091E00E9483030E94B1060E94420760E012
:1011C00080E00E943A0742E050E063E080E00E9445
:1011D0008A0641E00E946E074C875D87F22EE32E5F
:1011E000CC84DD8424E043E062E0CE0101960E94DD
:1011F000DB0609811A812B813C814D815E816F81E3
:10120000788589850E94E80660E080E00E943A07C0
:10121000AA24A39483E0B82E91E0A912B8C00E943A
:1012200098038FEF881A980A98E2891691040CF4B3
:10123000ABC00E94AA02FA86EB8660E08A859B8595
:101240000E94B703DD86CC866A857B858C859D856B
:101250000E940D067B878C879D87F62EE72ECC8417
:10126000DD8483E0F81250C029819A818B81E216D7
:1012700021F0E91611F0E81207C060E080E00E945A
:101280003A0721E030E01DC04E2D0E2C000C550B0E
:10129000022E000C330B2F5F3F4F4217530721F4F0
:1012A00091E0C916D10449F3082E000C990B01975F
:1012B0004817590721F483E0C816D104F1F22FEF43
:1012C0003FEFA22E21303105B9F4BA866A857B85BD
:1012D0008C859D85C980DA80EB80FC800D811E8124
:1012E0002F81388549850E9445078C879D87F62E7A
:1012F000E72ECC84DD8408C00E945F04BA8660E0DB
:101300008A859B850E94B703FA86EB8661E08A8511
:101310009B850E94B70382E00E947A02882349F0ED
:101320008B81863034F460E070E0CE0101960E943B
:101330000A0780E00E947A02882349F08981181602
:1013400034F461E070E0CE0101960E940A070E9429
:101350009506882349F080E00E9447084C875D8706
:10136000F22EE32ECC84DD84F1100CC04E2DB6019C
:101370008A2D0E94C6071A86EB8660E08A859B85C7
:101380000E94B703812C912C0E94820545CF0E94B8
:10139000970742CF002480FD060E660F11F0869558
:1013A000D1F7802D08950024552704C0080E591F39
:1013B000880F991F009729F076956795B8F3710506
:1013C000B9F7802D952F0895AA1BBB1B51E107C0CB
:1013D000AA1FBB1FA617B70710F0A61BB70B881FC5
:1013E000991F5A95A9F780959095BC01CD01089554
:1013F000052E97FB1EF400940E940F0A57FD07D09C
:101400000E941D0A07FC03D04EF40C940F0A50955D
:101410004095309521953F4F4F4F5F4F08959095E0
:101420008095709561957F4F8F4F9F4F0895EE0F78
:10143000FF1F0590F491E02D0994A1E21A2EAA1B3A
:10144000BB1BFD010DC0AA1FBB1FEE1FFF1FA21774
:10145000B307E407F50720F0A21BB30BE40BF50B71
:10146000661F771F881F991F1A9469F760957095FA
:10147000809590959B01AC01BD01CF010895FB01C2
:10148000DC014150504048F001900D920020C9F716
:1014900001C01D9241505040E0F70895F894FFCFED
:1014A0000100000000000014000000000000000027
:1014B000000000000000000000000000000000002C
:1014C000000000000000000000000000000000001C
:1014D0000000000306080A03400080031003800395
:1014E000200040002000100008000400020001035A
:1014F000800340032000800310000101010100016E
:10150000FF00FFFFFFFF00FF0100000700060005CE
:1015100000040003000200010004000300020001B7
:101520000000000700060005000400050006000793
:10153000000000010002000300010507205F050014
:1015400000000000C6186380014A290000004A7D9F
:10155000F59502C417471F01632222320626155152
:1015600093058608000000880821080282208488EC
:1015700000805457090080904F08000000608800E8
:1015800000800F00000000008C0100222202002ECB
:10159000E63AA303C4104288032E4244C4072E42F5
:1015A00007A30388A9F411023F8407A3032E86171B
:1015B000A3033F424408012E4617A3032E460FA360
:1015C00003C018600C00C0186088008888200802DA
:1015D000007CF0010082208888002E424400012E09
:1015E000425BAB0344C51F63042FC617E3032E867B
:1015F00010A2032FC618E3033F8417C2073F8417C6
:1016000042002E861EA30731C61F63048E10428837
:1016100003104218A3033195515204218410C207CC
:1016200071D71A630471D61C63042EC618A3032F46
:10163000C61742002EC65893052FC61763042E0600
:1016400007A3039F1042080131C618A30331C6182F
:10165000150131C65AAB02312AA26204312A42086E
:10166000011F2222C207278410C201200882200005
:101670000E218490034445000000000000C0078252
:10168000200000000038E8A30721B419E30300B8E4
:1016900010A20310DA1CA30700B8F883034C8A23B6
:1016A0008400C0C7E8A10321B41963040418428868
:1016B00003083084920121A4324A02861042880332
:1016C00000AC5A630400B419630400B818A3030003
:1016D000BCF8420000D8EC210400B419420000B864
:1016E000E0E003421C21240300C418B30500C41821
:1016F000150100C45AAB02004445540400C4E8A1DB
:1017000003007C44C4078810410802841042080189
:10171000821044880000888A000047414D45204FD0
:0417200056455200D8
:00000001FF
